{
  "_format": "hh-sol-artifact-1",
  "contractName": "MarketFactory",
  "sourceName": "contracts/MarketFactory.sol",
  "abi": [
    {
      "inputs": [
        {
          "internalType": "address",
          "name": "_realityETHAddress",
          "type": "address"
        }
      ],
      "stateMutability": "nonpayable",
      "type": "constructor"
    },
    {
      "inputs": [
        {
          "internalType": "bytes32",
          "name": "_tokenName",
          "type": "bytes32"
        }
      ],
      "name": "createMarket",
      "outputs": [
        {
          "internalType": "contract Market",
          "name": "",
          "type": "address"
        }
      ],
      "stateMutability": "nonpayable",
      "type": "function"
    },
    {
      "inputs": [
        {
          "internalType": "bytes32",
          "name": "",
          "type": "bytes32"
        }
      ],
      "name": "markets",
      "outputs": [
        {
          "internalType": "contract Market",
          "name": "",
          "type": "address"
        }
      ],
      "stateMutability": "view",
      "type": "function"
    },
    {
      "inputs": [],
      "name": "oracle",
      "outputs": [
        {
          "internalType": "contract Oracle",
          "name": "",
          "type": "address"
        }
      ],
      "stateMutability": "view",
      "type": "function"
    }
  ],
  "bytecode": "0x608060405234801561001057600080fd5b50604051613c62380380613c6283398101604081905261002f9161009c565b8060405161003c9061008f565b6001600160a01b039091168152602001604051809103906000f080158015610068573d6000803e3d6000fd5b50600080546001600160a01b0319166001600160a01b0392909216919091179055506100cc565b6106c2806135a083390190565b6000602082840312156100ae57600080fd5b81516001600160a01b03811681146100c557600080fd5b9392505050565b6134c5806100db6000396000f3fe608060405234801561001057600080fd5b50600436106100415760003560e01c80632243118a146100465780637564912b146100755780637dc0d1d01461009e575b600080fd5b610059610054366004610282565b6100b1565b6040516001600160a01b03909116815260200160405180910390f35b610059610083366004610282565b6001602052600090815260409020546001600160a01b031681565b600054610059906001600160a01b031681565b60008054604080517f4d61726b6574207175657374696f6e20666f722000000000000000000000000060208201526034808201869052825180830390910181526054820192839052631212e4f160e21b90925283926001600160a01b03169163484b93c4916101319185918290620151809042908390819060580161029b565b6020604051808303816000875af1158015610150573d6000803e3d6000fd5b505050506040513d601f19601f820116820180604052508101906101749190610330565b6000818152600160205260409020549091506001600160a01b0316156101e05760405162461bcd60e51b815260206004820152601560248201527f4d61726b657420616c7265616479206578697374730000000000000000000000604482015260640160405180910390fd5b60008054604051839186916001600160a01b039091169061020090610275565b92835260208301919091526001600160a01b03166040820152606001604051809103906000f080158015610238573d6000803e3d6000fd5b50600092835260016020526040909220805473ffffffffffffffffffffffffffffffffffffffff19166001600160a01b0384161790555092915050565b6131468061034a83390190565b60006020828403121561029457600080fd5b5035919050565b8781526000602060e08184015288518060e085015260005b818110156102d0578a8101830151858201610100015282016102b3565b506101009150600082828601015281601f19601f8301168501019250505061030360408301886001600160a01b03169052565b63ffffffff8616606083015263ffffffff8516608083015260a082019390935260c0015295945050505050565b60006020828403121561034257600080fd5b505191905056fe608060405234801561001057600080fd5b5060405161314638038061314683398101604081905261002f91610213565b60008390556040516402637b733960dd1b60208201526025810183905260450160408051601f1981840301815290829052601360fa1b60208301526021820184905290604101604051602081830303815290604052604051610090906101f9565b61009b92919061029f565b604051809103906000f0801580156100b7573d6000803e3d6000fd5b50600380546001600160a01b0319166001600160a01b039290921691909117905560405165029b437b93a160d51b60208201526026810183905260460160408051601f1981840301815290829052605360f81b60208301526021820184905290604101604051602081830303815290604052604051610135906101f9565b61014092919061029f565b604051809103906000f08015801561015c573d6000803e3d6000fd5b50600480546001600160a01b0319166001600160a01b0392831690811790915560035460405192169161018e90610206565b6001600160a01b03928316815291166020820152604001604051809103906000f0801580156101c1573d6000803e3d6000fd5b50600180546001600160a01b039283166001600160a01b03199182161790915560028054939092169216919091179055506102cd9050565b610ccd806108d783390190565b611ba2806115a483390190565b60008060006060848603121561022857600080fd5b83516020850151604086015191945092506001600160a01b038116811461024e57600080fd5b809150509250925092565b6000815180845260005b8181101561027f57602081850181015186830182015201610263565b506000602082860101526020601f19601f83011685010191505092915050565b6040815260006102b26040830185610259565b82810360208401526102c48185610259565b95945050505050565b6105fb806102dc6000396000f3fe60806040526004361061007b5760003560e01c80637dc0d1d01161004e5780637dc0d1d014610125578063b06a5c5214610145578063dbb3f53714610169578063f76541761461018a57600080fd5b80631f21f9af1461008057806324a47aeb146100bd57806327793f87146100df5780632b9b55b314610110575b600080fd5b34801561008c57600080fd5b506001546100a0906001600160a01b031681565b6040516001600160a01b0390911681526020015b60405180910390f35b3480156100c957600080fd5b506100dd6100d8366004610593565b610192565b005b3480156100eb57600080fd5b5060025461010090600160a81b900460ff1681565b60405190151581526020016100b4565b34801561011c57600080fd5b506100dd6103c6565b34801561013157600080fd5b506002546100a0906001600160a01b031681565b34801561015157600080fd5b5061015b60005481565b6040519081526020016100b4565b34801561017557600080fd5b5060025461010090600160a01b900460ff1681565b6100dd6104c7565b6003546040516370a0823160e01b815233600482015282916001600160a01b0316906370a0823190602401602060405180830381865afa1580156101da573d6000803e3d6000fd5b505050506040513d601f19601f820116820180604052508101906101fe91906105ac565b1015801561027b5750600480546040516370a0823160e01b8152339281019290925282916001600160a01b03909116906370a0823190602401602060405180830381865afa158015610254573d6000803e3d6000fd5b505050506040513d601f19601f8201168201806040525081019061027891906105ac565b10155b6102cc5760405162461bcd60e51b815260206004820152601460248201527f496e73756666696369656e742062616c616e636500000000000000000000000060448201526064015b60405180910390fd5b600354604051632770a7eb60e21b8152336004820152602481018390526001600160a01b0390911690639dc29fac90604401600060405180830381600087803b15801561031857600080fd5b505af115801561032c573d6000803e3d6000fd5b505060048054604051632770a7eb60e21b81523392810192909252602482018590526001600160a01b03169250639dc29fac9150604401600060405180830381600087803b15801561037d57600080fd5b505af1158015610391573d6000803e3d6000fd5b505060405133925083156108fc02915083906000818181858888f193505050501580156103c2573d6000803e3d6000fd5b5050565b600254600160a01b900460ff16156104205760405162461bcd60e51b815260206004820152601760248201527f4d61726b657420616c7265616479207265736f6c76656400000000000000000060448201526064016102c3565b6002546000805460405163ab5a4e3560e01b815291926001600160a01b03169163ab5a4e35916104569160040190815260200190565b602060405180830381865afa158015610473573d6000803e3d6000fd5b505050506040513d601f19601f8201168201806040525081019061049791906105ac565b60028054600160a01b61ffff60a01b19909116921515600160a81b0260ff60a01b19169290921791909117905550565b6003546040516340c10f1960e01b81523360048201523460248201819052916001600160a01b0316906340c10f1990604401600060405180830381600087803b15801561051357600080fd5b505af1158015610527573d6000803e3d6000fd5b5050600480546040516340c10f1960e01b81523392810192909252602482018590526001600160a01b031692506340c10f199150604401600060405180830381600087803b15801561057857600080fd5b505af115801561058c573d6000803e3d6000fd5b5050505050565b6000602082840312156105a557600080fd5b5035919050565b6000602082840312156105be57600080fd5b505191905056fea26469706673582212202eb35e77e01a4d1aed024d300c4b7247bee0496f00e87447984be82ac655d38e64736f6c6343000814003360806040523480156200001157600080fd5b5060405162000ccd38038062000ccd8339810160408190526200003491620001b1565b3382826003620000458382620002aa565b506004620000548282620002aa565b5050506001600160a01b0381166200008657604051631e4fbdf760e01b81526000600482015260240160405180910390fd5b62000091816200009a565b50505062000376565b600580546001600160a01b038381166001600160a01b0319831681179093556040519116919082907f8be0079c531659141344cd1fd0a4f28419497f9722a3daafe3b4186f6b6457e090600090a35050565b634e487b7160e01b600052604160045260246000fd5b600082601f8301126200011457600080fd5b81516001600160401b0380821115620001315762000131620000ec565b604051601f8301601f19908116603f011681019082821181831017156200015c576200015c620000ec565b816040528381526020925086838588010111156200017957600080fd5b600091505b838210156200019d57858201830151818301840152908201906200017e565b600093810190920192909252949350505050565b60008060408385031215620001c557600080fd5b82516001600160401b0380821115620001dd57600080fd5b620001eb8683870162000102565b935060208501519150808211156200020257600080fd5b50620002118582860162000102565b9150509250929050565b600181811c908216806200023057607f821691505b6020821081036200025157634e487b7160e01b600052602260045260246000fd5b50919050565b601f821115620002a557600081815260208120601f850160051c81016020861015620002805750805b601f850160051c820191505b81811015620002a1578281556001016200028c565b5050505b505050565b81516001600160401b03811115620002c657620002c6620000ec565b620002de81620002d784546200021b565b8462000257565b602080601f831160018114620003165760008415620002fd5750858301515b600019600386901b1c1916600185901b178555620002a1565b600085815260208120601f198616915b82811015620003475788860151825594840194600190910190840162000326565b5085821015620003665787850151600019600388901b60f8161c191681555b5050505050600190811b01905550565b61094780620003866000396000f3fe608060405234801561001057600080fd5b50600436106100ea5760003560e01c8063715018a61161008c5780639dc29fac116100665780639dc29fac146101cd578063a9059cbb146101e0578063dd62ed3e146101f3578063f2fde38b1461022c57600080fd5b8063715018a6146101a25780638da5cb5b146101aa57806395d89b41146101c557600080fd5b806323b872dd116100c857806323b872dd14610142578063313ce5671461015557806340c10f191461016457806370a082311461017957600080fd5b806306fdde03146100ef578063095ea7b31461010d57806318160ddd14610130575b600080fd5b6100f761023f565b6040516101049190610791565b60405180910390f35b61012061011b3660046107fb565b6102d1565b6040519015158152602001610104565b6002545b604051908152602001610104565b610120610150366004610825565b6102eb565b60405160128152602001610104565b6101776101723660046107fb565b61030f565b005b610134610187366004610861565b6001600160a01b031660009081526020819052604090205490565b610177610325565b6005546040516001600160a01b039091168152602001610104565b6100f7610339565b6101776101db3660046107fb565b610348565b6101206101ee3660046107fb565b61035a565b610134610201366004610883565b6001600160a01b03918216600090815260016020908152604080832093909416825291909152205490565b61017761023a366004610861565b610368565b60606003805461024e906108b6565b80601f016020809104026020016040519081016040528092919081815260200182805461027a906108b6565b80156102c75780601f1061029c576101008083540402835291602001916102c7565b820191906000526020600020905b8154815290600101906020018083116102aa57829003601f168201915b5050505050905090565b6000336102df8185856103ab565b60019150505b92915050565b6000336102f98582856103bd565b61030485858561043b565b506001949350505050565b61031761049a565b61032182826104c7565b5050565b61032d61049a565b61033760006104fd565b565b60606004805461024e906108b6565b61035061049a565b610321828261055c565b6000336102df81858561043b565b61037061049a565b6001600160a01b03811661039f57604051631e4fbdf760e01b8152600060048201526024015b60405180910390fd5b6103a8816104fd565b50565b6103b88383836001610592565b505050565b6001600160a01b038381166000908152600160209081526040808320938616835292905220546000198114610435578181101561042657604051637dc7a0d960e11b81526001600160a01b03841660048201526024810182905260448101839052606401610396565b61043584848484036000610592565b50505050565b6001600160a01b03831661046557604051634b637e8f60e11b815260006004820152602401610396565b6001600160a01b03821661048f5760405163ec442f0560e01b815260006004820152602401610396565b6103b8838383610667565b6005546001600160a01b031633146103375760405163118cdaa760e01b8152336004820152602401610396565b6001600160a01b0382166104f15760405163ec442f0560e01b815260006004820152602401610396565b61032160008383610667565b600580546001600160a01b0383811673ffffffffffffffffffffffffffffffffffffffff19831681179093556040519116919082907f8be0079c531659141344cd1fd0a4f28419497f9722a3daafe3b4186f6b6457e090600090a35050565b6001600160a01b03821661058657604051634b637e8f60e11b815260006004820152602401610396565b61032182600083610667565b6001600160a01b0384166105bc5760405163e602df0560e01b815260006004820152602401610396565b6001600160a01b0383166105e657604051634a1406b160e11b815260006004820152602401610396565b6001600160a01b038085166000908152600160209081526040808320938716835292905220829055801561043557826001600160a01b0316846001600160a01b03167f8c5be1e5ebec7d5bd14f71427d1e84f3dd0314c0f7b2291e5b200ac8c7c3b9258460405161065991815260200190565b60405180910390a350505050565b6001600160a01b03831661069257806002600082825461068791906108f0565b909155506107049050565b6001600160a01b038316600090815260208190526040902054818110156106e55760405163391434e360e21b81526001600160a01b03851660048201526024810182905260448101839052606401610396565b6001600160a01b03841660009081526020819052604090209082900390555b6001600160a01b0382166107205760028054829003905561073f565b6001600160a01b03821660009081526020819052604090208054820190555b816001600160a01b0316836001600160a01b03167fddf252ad1be2c89b69c2b068fc378daa952ba7f163c4a11628f55a4df523b3ef8360405161078491815260200190565b60405180910390a3505050565b600060208083528351808285015260005b818110156107be578581018301518582016040015282016107a2565b506000604082860101526040601f19601f8301168501019250505092915050565b80356001600160a01b03811681146107f657600080fd5b919050565b6000806040838503121561080e57600080fd5b610817836107df565b946020939093013593505050565b60008060006060848603121561083a57600080fd5b610843846107df565b9250610851602085016107df565b9150604084013590509250925092565b60006020828403121561087357600080fd5b61087c826107df565b9392505050565b6000806040838503121561089657600080fd5b61089f836107df565b91506108ad602084016107df565b90509250929050565b600181811c908216806108ca57607f821691505b6020821081036108ea57634e487b7160e01b600052602260045260246000fd5b50919050565b808201808211156102e557634e487b7160e01b600052601160045260246000fdfea264697066735822122054b6f8e4f6bfbd5121ae4173a18d7ee6a746a125e7973e4115f8251a7bcbab0164736f6c63430008140033608060405234801561001057600080fd5b50604051611ba2380380611ba283398101604081905261002f91610128565b600080546001600160a01b038085166001600160a01b031992831617909255600180549284169290911691909117905560405161006b906100ff565b60408082526014908201527f4c697175696469747920506f6f6c20546f6b656e00000000000000000000000060608201526080602082018190526003908201526213141560ea1b60a082015260c001604051809103906000f0801580156100d6573d6000803e3d6000fd5b50600280546001600160a01b0319166001600160a01b03929092169190911790555061015b9050565b610ccd80610ed583390190565b80516001600160a01b038116811461012357600080fd5b919050565b6000806040838503121561013b57600080fd5b6101448361010c565b91506101526020840161010c565b90509250929050565b610d6b8061016a6000396000f3fe608060405234801561001057600080fd5b506004361061007d5760003560e01c8063b66333cd1161005b578063b66333cd146100de578063b6b55f25146100f1578063c037646a14610104578063e3065da71461011757600080fd5b80632e1a7d4d146100825780633a98ef391461009757806343cd8f7e146100b3575b600080fd5b610095610090366004610c27565b61012a565b005b6100a060035481565b6040519081526020015b60405180910390f35b6002546100c6906001600160a01b031681565b6040516001600160a01b0390911681526020016100aa565b6000546100c6906001600160a01b031681565b6100956100ff366004610c27565b610420565b610095610112366004610c51565b610925565b6001546100c6906001600160a01b031681565b600354811061013857600080fd5b600354600080546040516370a0823160e01b815230600482015291929184916001600160a01b0316906370a0823190602401602060405180830381865afa158015610187573d6000803e3d6000fd5b505050506040513d601f19601f820116820180604052508101906101ab9190610c7d565b6101b59190610cac565b6101bf9190610cc9565b600080546040516370a0823160e01b815230600482015292935090916001600160a01b03909116906370a0823190602401602060405180830381865afa15801561020d573d6000803e3d6000fd5b505050506040513d601f19601f820116820180604052508101906102319190610c7d565b6001546040516370a0823160e01b815230600482015284916001600160a01b0316906370a0823190602401602060405180830381865afa158015610279573d6000803e3d6000fd5b505050506040513d601f19601f8201168201806040525081019061029d9190610c7d565b6102a79190610cac565b6102b19190610cc9565b600254604051632770a7eb60e21b8152336004820152602481018690529192506001600160a01b031690639dc29fac90604401600060405180830381600087803b1580156102fe57600080fd5b505af1158015610312573d6000803e3d6000fd5b5050505082600360008282546103289190610ceb565b909155505060005460405163a9059cbb60e01b8152336004820152602481018490526001600160a01b039091169063a9059cbb906044015b6020604051808303816000875af115801561037f573d6000803e3d6000fd5b505050506040513d601f19601f820116820180604052508101906103a39190610cfe565b5060015460405163a9059cbb60e01b8152336004820152602481018390526001600160a01b039091169063a9059cbb906044015b6020604051808303816000875af11580156103f6573d6000803e3d6000fd5b505050506040513d601f19601f8201168201806040525081019061041a9190610cfe565b50505050565b600054604051636eb1769f60e11b815233600482015230602482015282916001600160a01b03169063dd62ed3e90604401602060405180830381865afa15801561046e573d6000803e3d6000fd5b505050506040513d601f19601f820116820180604052508101906104929190610c7d565b10156104ef5760405162461bcd60e51b815260206004820152602160248201527f496e73756666696369656e74206c6f6e6720746f6b656e20616c6c6f77616e636044820152606560f81b60648201526084015b60405180910390fd5b600080546040516370a0823160e01b81523060048201526001600160a01b03909116906370a0823190602401602060405180830381865afa158015610538573d6000803e3d6000fd5b505050506040513d601f19601f8201168201806040525081019061055c9190610c7d565b6001546040516370a0823160e01b815230600482015284916001600160a01b0316906370a0823190602401602060405180830381865afa1580156105a4573d6000803e3d6000fd5b505050506040513d601f19601f820116820180604052508101906105c89190610c7d565b6105d29190610cac565b6105dc9190610cc9565b600154604051636eb1769f60e11b815233600482015230602482015291925082916001600160a01b039091169063dd62ed3e90604401602060405180830381865afa15801561062f573d6000803e3d6000fd5b505050506040513d601f19601f820116820180604052508101906106539190610c7d565b10156106ac5760405162461bcd60e51b815260206004820152602260248201527f496e73756666696369656e742073686f727420746f6b656e20616c6c6f77616e604482015261636560f01b60648201526084016104e6565b6000546040516323b872dd60e01b8152336004820152306024820152604481018490526001600160a01b03909116906323b872dd906064016020604051808303816000875af1158015610703573d6000803e3d6000fd5b505050506040513d601f19601f820116820180604052508101906107279190610cfe565b506001546040516323b872dd60e01b8152336004820152306024820152604481018390526001600160a01b03909116906323b872dd906064016020604051808303816000875af115801561077f573d6000803e3d6000fd5b505050506040513d601f19601f820116820180604052508101906107a39190610cfe565b50600080546040516370a0823160e01b81523060048201526001600160a01b03909116906370a0823190602401602060405180830381865afa1580156107ed573d6000803e3d6000fd5b505050506040513d601f19601f820116820180604052508101906108119190610c7d565b60000361081f5750816108a5565b6003546000546040516370a0823160e01b81523060048201526001600160a01b03909116906370a0823190602401602060405180830381865afa15801561086a573d6000803e3d6000fd5b505050506040513d601f19601f8201168201806040525081019061088e9190610c7d565b6108989085610cc9565b6108a29190610cac565b90505b80600360008282546108b79190610d22565b90915550506002546040516340c10f1960e01b8152336004820152602481018390526001600160a01b03909116906340c10f1990604401600060405180830381600087803b15801561090857600080fd5b505af115801561091c573d6000803e3d6000fd5b50505050505050565b600081116109755760405162461bcd60e51b815260206004820152601d60248201527f416d6f756e74206d7573742062652067726561746572207468616e203000000060448201526064016104e6565b60008215610b12576001546040516370a0823160e01b8152306004820152610a5e916001600160a01b0316906370a0823190602401602060405180830381865afa1580156109c7573d6000803e3d6000fd5b505050506040513d601f19601f820116820180604052508101906109eb9190610c7d565b6000546040516370a0823160e01b81523060048201526001600160a01b03909116906370a08231906024015b602060405180830381865afa158015610a34573d6000803e3d6000fd5b505050506040513d601f19601f82011682018060405250810190610a589190610c7d565b84610bee565b6001546040516323b872dd60e01b8152336004820152306024820152604481018590529192506001600160a01b0316906323b872dd906064016020604051808303816000875af1158015610ab6573d6000803e3d6000fd5b505050506040513d601f19601f82011682018060405250810190610ada9190610cfe565b5060005460405163a9059cbb60e01b8152336004820152602481018390526001600160a01b039091169063a9059cbb906044016103d7565b6000546040516370a0823160e01b8152306004820152610bb0916001600160a01b0316906370a0823190602401602060405180830381865afa158015610b5c573d6000803e3d6000fd5b505050506040513d601f19601f82011682018060405250810190610b809190610c7d565b6001546040516370a0823160e01b81523060048201526001600160a01b03909116906370a0823190602401610a17565b6000546040516323b872dd60e01b8152336004820152306024820152604481018590529192506001600160a01b0316906323b872dd90606401610360565b600080610bfb8486610cac565b90506000610c098487610d22565b610c139083610cc9565b610c1d9086610ceb565b9695505050505050565b600060208284031215610c3957600080fd5b5035919050565b8015158114610c4e57600080fd5b50565b60008060408385031215610c6457600080fd5b8235610c6f81610c40565b946020939093013593505050565b600060208284031215610c8f57600080fd5b5051919050565b634e487b7160e01b600052601160045260246000fd5b8082028115828204841417610cc357610cc3610c96565b92915050565b600082610ce657634e487b7160e01b600052601260045260246000fd5b500490565b81810381811115610cc357610cc3610c96565b600060208284031215610d1057600080fd5b8151610d1b81610c40565b9392505050565b80820180821115610cc357610cc3610c9656fea264697066735822122018fed51efe46f778e40fdc2fb0cd332d69c225424811b50d45fb171506d5058464736f6c6343000814003360806040523480156200001157600080fd5b5060405162000ccd38038062000ccd8339810160408190526200003491620001b1565b3382826003620000458382620002aa565b506004620000548282620002aa565b5050506001600160a01b0381166200008657604051631e4fbdf760e01b81526000600482015260240160405180910390fd5b62000091816200009a565b50505062000376565b600580546001600160a01b038381166001600160a01b0319831681179093556040519116919082907f8be0079c531659141344cd1fd0a4f28419497f9722a3daafe3b4186f6b6457e090600090a35050565b634e487b7160e01b600052604160045260246000fd5b600082601f8301126200011457600080fd5b81516001600160401b0380821115620001315762000131620000ec565b604051601f8301601f19908116603f011681019082821181831017156200015c576200015c620000ec565b816040528381526020925086838588010111156200017957600080fd5b600091505b838210156200019d57858201830151818301840152908201906200017e565b600093810190920192909252949350505050565b60008060408385031215620001c557600080fd5b82516001600160401b0380821115620001dd57600080fd5b620001eb8683870162000102565b935060208501519150808211156200020257600080fd5b50620002118582860162000102565b9150509250929050565b600181811c908216806200023057607f821691505b6020821081036200025157634e487b7160e01b600052602260045260246000fd5b50919050565b601f821115620002a557600081815260208120601f850160051c81016020861015620002805750805b601f850160051c820191505b81811015620002a1578281556001016200028c565b5050505b505050565b81516001600160401b03811115620002c657620002c6620000ec565b620002de81620002d784546200021b565b8462000257565b602080601f831160018114620003165760008415620002fd5750858301515b600019600386901b1c1916600185901b178555620002a1565b600085815260208120601f198616915b82811015620003475788860151825594840194600190910190840162000326565b5085821015620003665787850151600019600388901b60f8161c191681555b5050505050600190811b01905550565b61094780620003866000396000f3fe608060405234801561001057600080fd5b50600436106100ea5760003560e01c8063715018a61161008c5780639dc29fac116100665780639dc29fac146101cd578063a9059cbb146101e0578063dd62ed3e146101f3578063f2fde38b1461022c57600080fd5b8063715018a6146101a25780638da5cb5b146101aa57806395d89b41146101c557600080fd5b806323b872dd116100c857806323b872dd14610142578063313ce5671461015557806340c10f191461016457806370a082311461017957600080fd5b806306fdde03146100ef578063095ea7b31461010d57806318160ddd14610130575b600080fd5b6100f761023f565b6040516101049190610791565b60405180910390f35b61012061011b3660046107fb565b6102d1565b6040519015158152602001610104565b6002545b604051908152602001610104565b610120610150366004610825565b6102eb565b60405160128152602001610104565b6101776101723660046107fb565b61030f565b005b610134610187366004610861565b6001600160a01b031660009081526020819052604090205490565b610177610325565b6005546040516001600160a01b039091168152602001610104565b6100f7610339565b6101776101db3660046107fb565b610348565b6101206101ee3660046107fb565b61035a565b610134610201366004610883565b6001600160a01b03918216600090815260016020908152604080832093909416825291909152205490565b61017761023a366004610861565b610368565b60606003805461024e906108b6565b80601f016020809104026020016040519081016040528092919081815260200182805461027a906108b6565b80156102c75780601f1061029c576101008083540402835291602001916102c7565b820191906000526020600020905b8154815290600101906020018083116102aa57829003601f168201915b5050505050905090565b6000336102df8185856103ab565b60019150505b92915050565b6000336102f98582856103bd565b61030485858561043b565b506001949350505050565b61031761049a565b61032182826104c7565b5050565b61032d61049a565b61033760006104fd565b565b60606004805461024e906108b6565b61035061049a565b610321828261055c565b6000336102df81858561043b565b61037061049a565b6001600160a01b03811661039f57604051631e4fbdf760e01b8152600060048201526024015b60405180910390fd5b6103a8816104fd565b50565b6103b88383836001610592565b505050565b6001600160a01b038381166000908152600160209081526040808320938616835292905220546000198114610435578181101561042657604051637dc7a0d960e11b81526001600160a01b03841660048201526024810182905260448101839052606401610396565b61043584848484036000610592565b50505050565b6001600160a01b03831661046557604051634b637e8f60e11b815260006004820152602401610396565b6001600160a01b03821661048f5760405163ec442f0560e01b815260006004820152602401610396565b6103b8838383610667565b6005546001600160a01b031633146103375760405163118cdaa760e01b8152336004820152602401610396565b6001600160a01b0382166104f15760405163ec442f0560e01b815260006004820152602401610396565b61032160008383610667565b600580546001600160a01b0383811673ffffffffffffffffffffffffffffffffffffffff19831681179093556040519116919082907f8be0079c531659141344cd1fd0a4f28419497f9722a3daafe3b4186f6b6457e090600090a35050565b6001600160a01b03821661058657604051634b637e8f60e11b815260006004820152602401610396565b61032182600083610667565b6001600160a01b0384166105bc5760405163e602df0560e01b815260006004820152602401610396565b6001600160a01b0383166105e657604051634a1406b160e11b815260006004820152602401610396565b6001600160a01b038085166000908152600160209081526040808320938716835292905220829055801561043557826001600160a01b0316846001600160a01b03167f8c5be1e5ebec7d5bd14f71427d1e84f3dd0314c0f7b2291e5b200ac8c7c3b9258460405161065991815260200190565b60405180910390a350505050565b6001600160a01b03831661069257806002600082825461068791906108f0565b909155506107049050565b6001600160a01b038316600090815260208190526040902054818110156106e55760405163391434e360e21b81526001600160a01b03851660048201526024810182905260448101839052606401610396565b6001600160a01b03841660009081526020819052604090209082900390555b6001600160a01b0382166107205760028054829003905561073f565b6001600160a01b03821660009081526020819052604090208054820190555b816001600160a01b0316836001600160a01b03167fddf252ad1be2c89b69c2b068fc378daa952ba7f163c4a11628f55a4df523b3ef8360405161078491815260200190565b60405180910390a3505050565b600060208083528351808285015260005b818110156107be578581018301518582016040015282016107a2565b506000604082860101526040601f19601f8301168501019250505092915050565b80356001600160a01b03811681146107f657600080fd5b919050565b6000806040838503121561080e57600080fd5b610817836107df565b946020939093013593505050565b60008060006060848603121561083a57600080fd5b610843846107df565b9250610851602085016107df565b9150604084013590509250925092565b60006020828403121561087357600080fd5b61087c826107df565b9392505050565b6000806040838503121561089657600080fd5b61089f836107df565b91506108ad602084016107df565b90509250929050565b600181811c908216806108ca57607f821691505b6020821081036108ea57634e487b7160e01b600052602260045260246000fd5b50919050565b808201808211156102e557634e487b7160e01b600052601160045260246000fdfea2646970667358221220bea417607cfd1ac2b35f9fa27d479c33327c4de256337a0d1caa40f14ab0255e64736f6c63430008140033a26469706673582212203701513f1563faa110839440243722939123765ea9c32ee7853c98c5029ede7864736f6c63430008140033608060405234801561001057600080fd5b506040516106c23803806106c283398101604081905261002f916100ae565b6001600160a01b0381166100895760405162461bcd60e51b815260206004820152601b60248201527f496e76616c6964205265616c6974792e65746820616464726573730000000000604482015260640160405180910390fd5b600480546001600160a01b0319166001600160a01b03929092169190911790556100de565b6000602082840312156100c057600080fd5b81516001600160a01b03811681146100d757600080fd5b9392505050565b6105d5806100ed6000396000f3fe6080604052600436106100655760003560e01c80638d552d46116100435780638d552d46146100d25780639f1025c6146100ff578063ab5a4e351461014757600080fd5b8063484b93c41461006a57806351577ea91461009057806377f325df146100bd575b600080fd5b61007d6100783660046103fe565b610167565b6040519081526020015b60405180910390f35b34801561009c57600080fd5b5061007d6100ab3660046104fe565b60009081526020819052604090205490565b6100d06100cb366004610517565b610257565b005b3480156100de57600080fd5b5061007d6100ed3660046104fe565b60009081526001602052604090205490565b34801561010b57600080fd5b5061013261011a3660046104fe565b60009081526002602052604090205463ffffffff1690565b60405163ffffffff9091168152602001610087565b34801561015357600080fd5b5061007d6101623660046104fe565b61033a565b600080878460405160200161017d929190610573565b60408051601f198184030181529181528151602092830120600081815292839052912054909150156101f65760405162461bcd60e51b815260206004820152601760248201527f5175657374696f6e20616c72656164792065786973747300000000000000000060448201526064015b60405180910390fd5b87604051602001610207919061058c565b60408051601f19818403018152918152815160209283012060008481528084528281209190915560029092529020805463ffffffff881663ffffffff199091161790559050979650505050505050565b6000838152602081905260409020546102b25760405162461bcd60e51b815260206004820152601760248201527f5175657374696f6e20646f6573206e6f7420657869737400000000000000000060448201526064016101ed565b60008381526003602052604090205460ff16156103115760405162461bcd60e51b815260206004820152601860248201527f5175657374696f6e20616c726561647920736574746c6564000000000000000060448201526064016101ed565b50600091825260016020818152604080852093909355600390529120805460ff19169091179055565b60008181526003602052604081205460ff166103985760405162461bcd60e51b815260206004820152601460248201527f5175657374696f6e206e6f7420736574746c656400000000000000000000000060448201526064016101ed565b5060009081526001602052604090205490565b634e487b7160e01b600052604160045260246000fd5b803573ffffffffffffffffffffffffffffffffffffffff811681146103e557600080fd5b919050565b803563ffffffff811681146103e557600080fd5b600080600080600080600060e0888a03121561041957600080fd5b87359650602088013567ffffffffffffffff8082111561043857600080fd5b818a0191508a601f83011261044c57600080fd5b81358181111561045e5761045e6103ab565b604051601f8201601f19908116603f01168101908382118183101715610486576104866103ab565b816040528281528d602084870101111561049f57600080fd5b82602086016020830137600060208483010152809a5050505050506104c6604089016103c1565b94506104d4606089016103ea565b93506104e2608089016103ea565b925060a0880135915060c0880135905092959891949750929550565b60006020828403121561051057600080fd5b5035919050565b60008060006060848603121561052c57600080fd5b505081359360208301359350604090920135919050565b6000815160005b81811015610564576020818501810151868301520161054a565b50600093019283525090919050565b600061057f8285610543565b9283525050602001919050565b60006105988284610543565b939250505056fea2646970667358221220c05106f3f8b0a3a323c06dff8e7ac17f6d879a609917e69c439f48845aba582e64736f6c63430008140033",
  "linkReferences": {},
  "deployedLinkReferences": {}
}