{
  "_format": "hh-sol-artifact-1",
  "contractName": "Oracle",
  "sourceName": "contracts/Oracle.sol",
  "abi": [
    {
      "inputs": [
        {
          "internalType": "address",
          "name": "_realityETHAddress",
          "type": "address"
        }
      ],
      "stateMutability": "nonpayable",
      "type": "constructor"
    },
    {
      "inputs": [
        {
          "internalType": "uint256",
          "name": "template_id",
          "type": "uint256"
        },
        {
          "internalType": "string",
          "name": "question",
          "type": "string"
        },
        {
          "internalType": "address",
          "name": "arbitrator",
          "type": "address"
        },
        {
          "internalType": "uint32",
          "name": "timeout",
          "type": "uint32"
        },
        {
          "internalType": "uint32",
          "name": "opening_ts",
          "type": "uint32"
        },
        {
          "internalType": "uint256",
          "name": "nonce",
          "type": "uint256"
        },
        {
          "internalType": "uint256",
          "name": "min_bond",
          "type": "uint256"
        }
      ],
      "name": "askQuestionWithMinBond",
      "outputs": [
        {
          "internalType": "bytes32",
          "name": "",
          "type": "bytes32"
        }
      ],
      "stateMutability": "payable",
      "type": "function"
    },
    {
      "inputs": [
        {
          "internalType": "bytes32",
          "name": "question_id",
          "type": "bytes32"
        }
      ],
      "name": "getBestAnswer",
      "outputs": [
        {
          "internalType": "bytes32",
          "name": "",
          "type": "bytes32"
        }
      ],
      "stateMutability": "view",
      "type": "function"
    },
    {
      "inputs": [
        {
          "internalType": "bytes32",
          "name": "question_id",
          "type": "bytes32"
        }
      ],
      "name": "getContentHash",
      "outputs": [
        {
          "internalType": "bytes32",
          "name": "",
          "type": "bytes32"
        }
      ],
      "stateMutability": "view",
      "type": "function"
    },
    {
      "inputs": [
        {
          "internalType": "bytes32",
          "name": "question_id",
          "type": "bytes32"
        }
      ],
      "name": "getTimeout",
      "outputs": [
        {
          "internalType": "uint32",
          "name": "",
          "type": "uint32"
        }
      ],
      "stateMutability": "view",
      "type": "function"
    },
    {
      "inputs": [
        {
          "internalType": "bytes32",
          "name": "question_id",
          "type": "bytes32"
        }
      ],
      "name": "resultForOnceSettled",
      "outputs": [
        {
          "internalType": "bytes32",
          "name": "",
          "type": "bytes32"
        }
      ],
      "stateMutability": "view",
      "type": "function"
    },
    {
      "inputs": [
        {
          "internalType": "bytes32",
          "name": "question_id",
          "type": "bytes32"
        },
        {
          "internalType": "bytes32",
          "name": "answer",
          "type": "bytes32"
        },
        {
          "internalType": "uint256",
          "name": "max_previous",
          "type": "uint256"
        }
      ],
      "name": "submitAnswer",
      "outputs": [],
      "stateMutability": "payable",
      "type": "function"
    }
  ],
  "bytecode": "0x608060405234801561001057600080fd5b506040516106c23803806106c283398101604081905261002f916100ae565b6001600160a01b0381166100895760405162461bcd60e51b815260206004820152601b60248201527f496e76616c6964205265616c6974792e65746820616464726573730000000000604482015260640160405180910390fd5b600480546001600160a01b0319166001600160a01b03929092169190911790556100de565b6000602082840312156100c057600080fd5b81516001600160a01b03811681146100d757600080fd5b9392505050565b6105d5806100ed6000396000f3fe6080604052600436106100655760003560e01c80638d552d46116100435780638d552d46146100d25780639f1025c6146100ff578063ab5a4e351461014757600080fd5b8063484b93c41461006a57806351577ea91461009057806377f325df146100bd575b600080fd5b61007d6100783660046103fe565b610167565b6040519081526020015b60405180910390f35b34801561009c57600080fd5b5061007d6100ab3660046104fe565b60009081526020819052604090205490565b6100d06100cb366004610517565b610257565b005b3480156100de57600080fd5b5061007d6100ed3660046104fe565b60009081526001602052604090205490565b34801561010b57600080fd5b5061013261011a3660046104fe565b60009081526002602052604090205463ffffffff1690565b60405163ffffffff9091168152602001610087565b34801561015357600080fd5b5061007d6101623660046104fe565b61033a565b600080878460405160200161017d929190610573565b60408051601f198184030181529181528151602092830120600081815292839052912054909150156101f65760405162461bcd60e51b815260206004820152601760248201527f5175657374696f6e20616c72656164792065786973747300000000000000000060448201526064015b60405180910390fd5b87604051602001610207919061058c565b60408051601f19818403018152918152815160209283012060008481528084528281209190915560029092529020805463ffffffff881663ffffffff199091161790559050979650505050505050565b6000838152602081905260409020546102b25760405162461bcd60e51b815260206004820152601760248201527f5175657374696f6e20646f6573206e6f7420657869737400000000000000000060448201526064016101ed565b60008381526003602052604090205460ff16156103115760405162461bcd60e51b815260206004820152601860248201527f5175657374696f6e20616c726561647920736574746c6564000000000000000060448201526064016101ed565b50600091825260016020818152604080852093909355600390529120805460ff19169091179055565b60008181526003602052604081205460ff166103985760405162461bcd60e51b815260206004820152601460248201527f5175657374696f6e206e6f7420736574746c656400000000000000000000000060448201526064016101ed565b5060009081526001602052604090205490565b634e487b7160e01b600052604160045260246000fd5b803573ffffffffffffffffffffffffffffffffffffffff811681146103e557600080fd5b919050565b803563ffffffff811681146103e557600080fd5b600080600080600080600060e0888a03121561041957600080fd5b87359650602088013567ffffffffffffffff8082111561043857600080fd5b818a0191508a601f83011261044c57600080fd5b81358181111561045e5761045e6103ab565b604051601f8201601f19908116603f01168101908382118183101715610486576104866103ab565b816040528281528d602084870101111561049f57600080fd5b82602086016020830137600060208483010152809a5050505050506104c6604089016103c1565b94506104d4606089016103ea565b93506104e2608089016103ea565b925060a0880135915060c0880135905092959891949750929550565b60006020828403121561051057600080fd5b5035919050565b60008060006060848603121561052c57600080fd5b505081359360208301359350604090920135919050565b6000815160005b81811015610564576020818501810151868301520161054a565b50600093019283525090919050565b600061057f8285610543565b9283525050602001919050565b60006105988284610543565b939250505056fea2646970667358221220c05106f3f8b0a3a323c06dff8e7ac17f6d879a609917e69c439f48845aba582e64736f6c63430008140033",
  "linkReferences": {},
  "deployedLinkReferences": {}
}